:1000000000800020BD0100000D1A0000C51900008D
:10001000C5190000C5190000C5190000C519000068
:10002000C5190000C5190000C51900000D1A00000F
:100030000D1A0000C5190000011F00000520000076
:100040000D1A00000D1A00000D1A00000D1A000014
:100050000D1A00000D1A00000D1A00000D1A000004
:100060000D1A00000D1A00000D1A00000D1A0000F4
:100070000D1A00000D1A00000D1A00000D1A0000E4
:100080000D1A00000D1A00000D1A00000D1A0000D4
:100090000D1A00000D1A00000D1A00000D1A0000C4
:1000A0000D1A00000D1A00000D1A00000D1A0000B4
:1000B0000D1A00000D1A00000D1A00000D1A0000A4
:1000C0000D1A00000D1A00000D1A00000D1A000094
:1000D0000D1A00000D1A00000D1A00000D1A000084
:1000E0000D1A00000D1A00000D1A00000D1A000074
:1000F0000D1A0000711A00000D1A00009D1B00006F
:100100000D1A0000C91C00000D1A00000D1A000095
:100110000D1A00000D1A00000D1A00000D1A000043
:100120000D1A00000D1A00000D1A00000D1A000033
:100130000D1A00000D1A00000D1A00000D1A000023
:100140000D1A00000D1A00000D1A00000D1A000013
:100150000D1A00000D1A00000D1A00000D1A000003
:100160000D1A0000410A00000D1A00000D1A0000CF
:100170000D1A00000D1A00000D1A00000D1A0000E3
:100180000D1A00000D1A00000D1A00000D1A0000D3
:100190000D1A00000D1A00000D1A00000D1A0000C3
:1001A0000D1A00000D1A00000D1A00000D1A0000B3
:1001B0000D1A00000D1A00000D1A0000564B4CF2EB
:1001C000205210B51A804DF628121A8000BF00BFC9
:1001D00001F020FC514B4FF010621A60504A9A60B7
:1001E000504ADA60504A136813F4807304D14F49BF
:1001F0000B604FF4A85313604D4B1A78110703D5C9
:100200001A7842F008021A704A4B4B492A221A7097
:100210004A4A4B4B8B4204D252F8040F43F8040B6A
:10022000F8E7484B484900228B4202D243F8042B9E
:10023000FAE74649464A002352F8230041F82300D2
:1002400001336F2BF8D1434B434A802103F8011B44
:100250009342FBD1414B3D4A1A60414B8A221A70AE
:10026000A3F5805324225A70A0221A709A7992071B
:10027000FCD59A79D406FCD43A4A937903F00C035E
:10028000082B384BF9D103221A7140225A719A79FE
:100290009006FCD5334A9179324B4906FBD5324A58
:1002A000324911600221516020221A709A7902F0BD
:1002B0000C020C2AFAD12E4B2E4A1A602E4B45F610
:1002C000BF521A6000225A60072243F8042C2B4ABE
:1002D000C3F80C2D62B600F08BFA144B1B68DA07DA
:1002E00005D5274800F00AFA264B274A1A60274B03
:1002F0001B785B0609D5234C234B22689A4204D114
:100300001F4800F0FBF90023236001F0B7FE01F065
:1003100087FB01F091FAFEE70E2005403080044093
:10032000823F04000100002B10D0034014D0034092
:1003300002D0074000E007403C91FF1F042C000062
:10034000B087FF1F3C91FF1FB094FF1F0082FF1F6B
:100350000000000000E400E05FE400E008ED00E0E1
:100360000050064000400640448004400000333303
:1003700004800440C010050014E000E000002020CC
:10038000971100031CE00340A5C3945A00F00740F6
:10039000FFFFFFFFFFFFFFFFFFFFFFFFFFFFFFFF6D
:1003A000FFFFFFFFFFFFFFFFFFFFFFFFFFFFFFFF5D
:1003B000FFFFFFFFFFFFFFFFFFFFFFFFFFFFFFFF4D
:1003C000FFFFFFFFFFFFFFFFFFFFFFFFFFFFFFFF3D
:1003D000FFFFFFFFFFFFFFFFFFFFFFFFFFFFFFFF2D
:1003E000FFFFFFFFFFFFFFFFFFFFFFFFFFFFFFFF1D
:1003F000FFFFFFFFFFFFFFFFFFFFFFFFFFFFFFFF0D
:10040000FFFFFFFFFFFFFFFFFFFFFFFFDEF9FFFF23
:1004100010B5054C237833B9044B13B10448AFF33E
:1004200000800123237010BD3C91FF1F00000000DD
:10043000082C0000084B10B51BB108490848AFF361
:1004400000800848036803B910BD074B002BFBD0A0
:10045000BDE81040184700BF000000004091FF1F9A
:10046000082C00003C91FF1F00000000F8B501219E
:1004700004201F4C00F068F90420002100F050F91E
:10048000651D012001E014F8010F022100F05CF964
:10049000AC42F8D10221032000F056F902210820D5
:1004A00000F052F901210D2000F04EF9114B1248D5
:1004B00012496B226127732664256A241A6100227F
:1004C0004FF06C0E1F605E60712777269D60DC60C8
:1004D000752569240260426002810A604A600A81CF
:1004E000C3F814E09F611E62DD615C62F8BD00BF6D
:1004F000D02900009091FF1F5C91FF1F6891FF1FA2
:1005000070B5164E164A56F82030155C1A1C18BFE6
:100510000122AA4282B008D004468DB9114A12685D
:100520000192019AD31A042B01D802B070BD0E4B70
:1005300033F8200001F076F846F8245002B070BD80
:10054000094B33F8200000F0CBFF064B1B680093EB
:10055000009B46F8243002B070BD00BF6891FF1FB9
:100560005C91FF1FB891FF1F9091FF1F074B10B5C3
:100570000446185C00F0DAF8054AB0FA80F35B092B
:1005800020461355BDE81040FFF7BABFD029000040
:100590005C91FF1F184B70B50446185C174E00F0B5
:1005A000C5F8315DB0FA80F25209034604F108053E
:1005B000A01D9142C0B2EDB211D011490A542BB125
:1005C000104B53F82030B3FA83F35B094B55325587
:1005D000FFF796FF2846BDE87040FFF791BF084B34
:1005E0003255002119545955FFF78AFF2846BDE8B6
:1005F0007040FFF785BF00BFD82900005891FF1F4A
:100600005C91FF1F6891FF1F10B50024E0B2013418
:10061000FFF7ACFF062CF9D10020FFF7BBFF01204C
:10062000FFF7B8FF0549202250230A60013BFDD1A6
:100630004FF434734A60013BFDD110BD84F00F408C
:1006400010B40F4B53F8302092F880422CB10123A4
:1006500069B182F8803010BC704703EBC0035B685F
:100660001A6841B922F002021A6010BC704782F881
:10067000003110BC704742F003021A6010BC704792
:10068000DC2900001C4A02EBC00301295B6811D081
:1006900004291BD052F83000002280F8802229B1B2
:1006A000022920D0032922D01A6070474FF48072AB
:1006B0001A60704752F830004FF4A27280F880122E
:1006C0001A601A6822F020021A60704752F830103F
:1006D0004FF4A272012081F880021A601A6842F079
:1006E00020021A60704740F203121A6070474FF4FC
:1006F00081721A60704700BFDC29000030B4054BDE
:10070000054D064C002210211A602A6020601960F5
:1007100030BC704714D0034004D0034000D00340E5
:10072000212801D8FFF78CBF704700BF212806D8C9
:10073000044B53F8303093F80002C0B270470020E9
:10074000704700BFDC290000212801D8FFF79ABFBD
:10075000704700BF2DE9F843054672B6204F214B84
:10076000214A1B683C68126862B6520102D5322BDE
:1007700088BF013495B3C3F5BB431C4EDFF86490CA
:10078000DFF864803F334FF47A72A6FB031302FB59
:1007900004F404EB131472B6D9F800103A68D8F8D0
:1007A00000E062B6C1F5BB433F33A6FB03031EF076
:1007B000806FC4EB13134FF47A7002D0322988BFD4
:1007C000013200FB0233B3F57A7F04D3013D05D03B
:1007D00004F57A74DFE701F037F8DCE7BDE8F88369
:1007E000B891FF1F18E000E004ED00E0ABAAAAAA50
:1007F000F8B52D4B2D49DFF8D0E0DFF8D0C02C4EF6
:100800002C4D2D4C2D4A2E4F4FF4000018604FF008
:10081000807018604FF0007018604FF080601860B2
:100820004FF0006018600020086028234BF6FF712D
:10083000CCF80010CEF80030336013602B602360DA
:100840003B60B3629362082245F8242CC4F8D80FA9
:1008500005F57F65C7F8D41F07F5FF2707F5FA6789
:10086000C6F8F83F2B6006F5FF26C4F8D42F05F52F
:10087000FD2504F5FF24386006F2F4761148316056
:1008800005F5FF6504F5FD642B602360026001F04F
:1008900029F83220FFF75EFF00F00EFD4FF4AF7035
:1008A000BDE8F840FFF756BF08E100E004800340D0
:1008B00014800340248003402C8003401C800340AC
:1008C0003480034000800B400C80034008800340CC
:1008D000431E032B14D872B60A4951F8230068B19D
:1008E00070B4094C058834F81320466841F8236039
:1008F000521B24F8132062B670BC704762B6704772
:10090000002070471492FF1F9894FF1F013803289E
:100910000BD872B6074B53F8203043B100205B6808
:100920000130002BFBD162B670470020704718469B
:10093000F9E700BF6892FF1FF0B472B61A491B4E68
:10094000012311F8014B194F9A00240742F00105C9
:1009500005D556F8324064B156F83520BAB10133A6
:10096000052BEED162B6124B00221A70F0BC00F0DB
:10097000EBBE0F4C0F4D217847F8325007EB431375
:1009800008304A1E5860227062B6F0BC70470849B1
:10099000094B0A7847F8353007EBC5030830013AB0
:1009A00058600A7062B6F0E74C2B00000080FF1F11
:1009B0009192FF1F88004000C8004000431E032B97
:1009C0001DD81B4A400140F0100030B4104472B6EC
:1009D000184CE25C032A1BD8DFE802F0021215175C
:1009E00003220D88E25410F0080F14BFC823882397
:1009F00043EA054308310360416062B630BC70478A
:100A000008300222EDE70522EBE708300422E8E790
:100A1000094A52F8230038B1084A52F823004160CD
:100A200042F8231062B6E9E742F82310034AF7E7D9
:100A30000080FF1FA092FF1F6892FF1F7892FF1F88
:100A40002DE9F04FDFF814A3DFF814B387B044E0CA
:100A5000AB4F4FEA930807EBC809013ED9F80420D1
:100A600003F00803F6B2A2F1080003F0FF04002B24
:100A700040F0038157F838301B0C99B222F8081C5B
:100A8000002B00F0F1809F4B22F8064C42F8044CFA
:100A900053F82620002A00F0AF819B4D55F82630F0
:100AA00058609A4C45F8260034F81630194424F85A
:100AB000161000F029FE002800F0A281944A954B00
:100AC00019F0080F00F1080018BF1346C9F8040018
:100AD00047F8383008238AF800309AF80040E4B22A
:100AE00061071AD58C4B1B78A3B18C490A7802F0A8
:100AF000FF0322B1013BDBB20B7003B900BE884992
:100B00000A7802F0FF032AB1013BDBB20B70002B25
:100B100000F0488104238AF8003004F0080303F051
:100B2000FF02002B00F0CD809BF80030DBB21E09E5
:100B30008ED19A08724F57F8321007EBC200C1F3FA
:100B40008301013944680C2975D8DFE801F0787811
:100B50007474747474744274747407002168714DF1
:100B6000714B606801936A4B47F832306F4E686092
:100B700040F2816288B26C4B2960002401219042CE
:100B80001C603C61BC61317000F2F180B0F5D06F47
:100B900080F04082B0F5817F00F00B8200F270811E
:100BA000802800F03282822840F00982A888604BB9
:100BB00000F07F00042800F203825E4A80000344B4
:100BC000147054701878840740F134831170022136
:100BD000A5E1554B01931A683AB3574B534E57480A
:100BE00019883478057840298E4645F0020828BFD8
:100BF0004FF0400E002C84F001043470CEEB010164
:100C00000CBF8824C82407EBC80689B285F001050B
:100C100044EA0E447260198047F838407244057007
:100C2000002900F09F80019B1A603E4B1A88B2F5A4
:100C3000A06F00F0AE80424A012313704AE73948A2
:100C4000404D0168A94200F0F1803F4DA94204D116
:100C500040683E49884200F02B812D4947F8321008
:100C6000374A0123137035E7294A2A4B19F0080F38
:100C700018BF134647F838302CE700F065FD344ABA
:100C8000344952F82630002B00F0C18058688C5D42
:100C900042F8260003F10802C9F80420032C05D805
:100CA000DFE804F02B02282502228A551A8819F061
:100CB000080F0CBF8823C82343EA024347F83830A3
:100CC00008E7E00771D4210600F1D080A20706D51D
:100CD000214A224913780220DBB213700870E30620
:100CE00002D51E4B10221A7007B0BDE8F08F042207
:100CF0008A55DBE705228A55D8E703228A55D5E7CE
:100D00000080FF1F1492FF1FC091FF1F9894FF1FC8
:100D1000C8004000880040009C92FF1F2592FF1FE2
:100D2000B892FF1F8892FF1FBC91FF1F2492FF1FE4
:100D3000C02007409492FF1FD091FF1F9092FF1F89
:100D4000942007402109000221090003010004004A
:100D50006892FF1FA092FF1F882007408020074055
:100D600090200740BEF1400F18BF00225BE7B0F5AE
:100D7000106F00F0678140F2CB8040F62112904264
:100D800040F04682B34A01231370B24A0123137024
:100D9000A0E600219A785970AF4B1A70AD4A012332
:100DA000137097E600F028FDB4E6AC4BA948AC49B7
:100DB0001A614FF0020E80F800E0AA4F0A70AA49AB
:100DC00019609960A94EAA4DA34C9A610D21397002
:100DD000FF213170DFF8CCE229702270A54DA64AC0
:100DE0008EF800109F27012406F8047C5D600470D3
:100DF000DA6007B0BDE8F08F43F826009F4D50E65B
:100E00009F4A47F8380013780133137062E68B5D10
:100E1000032B00F2F38001A252F823F0D50A000060
:100E2000D50A00000B0F0000050F00004168B1F566
:100E3000803F7FF412AF8A48924E0178924B24781B
:100E400035781C7081F0010441F00201002D04701E
:100E500085F0010507EBC10035704FF000040CBFB1
:100E60008825C82547F831504460F6E67D49804B17
:100E700080220D2008701A70A2077FF530AF27E797
:100E800040F20232904240F0BB81AA8802F07F0219
:100E9000042A00F294806D88002D40F09080714803
:100EA000029192001044027842F00202027073E153
:100EB0002178A9297FF4D1AE617845297FF4CDAEA0
:100EC000A178C2297FF4C9AEE1786B297FF4C5AE61
:100ED00063486C4E0178347881F00105002C41F0B4
:100EE000020105700CBF8820C82084F0010447F877
:100EF000310007EBC10165483470002505244D60C1
:100F00000470AAE601238B55E4E500238B55E1E547
:100F1000B0F5086F53D15E485E4A00781070ED88D6
:100F20008D4280F09C814E48047844F0020C07EB1F
:100F3000CC01402DAE464FF0010328BF4FF0400ECC
:100F40004A6002EB0E09CEEB05014FEA0E48029310
:100F50000025C82242EA080384F0010247F83C3029
:100F600035700270DFF8F4C0464BDFF8F48051BBF7
:100F7000BEF1400F7FF406AF42F0020207EBC2035E
:100F8000DFF8D8E0C3F8049095BB0D0445F0880560
:100F90009DF8083033704029047009EB01034EF8C6
:100FA00032507FF4EFAE00213B4A0198118003607C
:100FB000E8E6AA8802F07F02042A40F22E81294B3B
:100FC0000F221A70DEE64029D6D942F002020CEB5D
:100FD000C200C0F804907DB130489DF808501D70E3
:100FE000403988F8004009F140034CF83200DBE753
:100FF0000D0445F0C805CBE71B48EEE719F0080FD4
:101000000CBF022303238B5564E5224A022114708E
:10101000547084E722494A68002AD0D06C88B5F819
:1010200004E003E00C314A68002AC8D00B88A342D0
:10103000F8D14B887345F5D1240A032C0CBF1178E5
:1010400009896CE7124A054CA978117004F18005F2
:101050002DE000BF94200740982007400080FF1F2C
:101060009092FF1FC0200740880040008820074062
:1010700080200740D491FF1F2892FF1FC091FF1FBF
:101080009192FF1F2492FF1FAC92FF1F2592FF1F1A
:101090009C92FF1F9492FF1FD091FF1FC800400039
:1010A000502B00008C2007400834AC4207D0236A44
:1010B0001A06F9D5606A083800F046FBF4E7704973
:1010C000704B714A02917149714C724D03940596AF
:1010D0004FF0000988461C4616460495206828B142
:1010E000456800F031FB2846002DF9D1002323602C
:1010F000049B30681A46002342F8293028B145681D
:1011000000F022FB2846002DF9D100223260029A1D
:1011100098F800301146002241F8042B039A0291FE
:10112000023B4FF0000122F81910032B07D8DFE82B
:1011300003F0470247024FF0010388F8003009F13D
:101140000109B9F1040F04F1040406F1040608F1E1
:101150000108C3D1504B059EDFF85491DFF854814C
:1011600000211970012518F8013B09F8043B1B0701
:101170002BD4AC0044F0020244F00304002347F8EF
:10118000323047F83430454B994505F10105EAD135
:101190003378029383F001050021894688468E4604
:1011A0000A463F48047844F0020C07EBCC03039353
:1011B000029B002B039B5A600CBF8822C822C9E601
:1011C0004FF0000388F80030B9E700F09DFAAC005A
:1011D00007EB451300F10802002837D05A60314B65
:1011E00047F8343000F090FA44F0010307EBC302F3
:1011F00000F1080100B351602B4A47F83320B9E7EA
:10120000B0F5A06F7FF4DBAE012300250293C3E7A6
:1012100040F621229042F7D0D1E66D88002D7FF470
:10122000CEAE2248029192001044027822F00202CF
:101230000270B1E7022172E6174B44F001021B78FD
:1012400047F83200144A0133137093E7124B124AE5
:101250001B78AC00013347F834001370C2E7402913
:101260008E464FF0010328BF4FF0400ECEEB010138
:101270004FEA0E4802EB0E090025029391E700BFEA
:101280007892FF1F1492FF1F6892FF1FA092FF1F0A
:101290009894FF1FC091FF1F9192FF1FD420074019
:1012A0009092FF1F88004000C8004000C020074007
:1012B000C42007404C2B00002DE9F843204C00F0DF
:1012C0006FFD002204F1880023461A605A6008333B
:1012D00083424FF00001F8D11A4A1B4F13681B4D8F
:1012E0001B481C4EDFF87880DFF878C0DFF8789074
:1012F000DFF878E043F480231360C4F307233B70E6
:10130000C4F307432B70240EFF2302F52832047028
:10131000114D88F8003011488CF80030D432337009
:10132000012389F8003070268EF800104FF4007405
:10133000102107F8183C2E7004601170BDE8F88386
:101340000080FF1F348004409C200740B0200740ED
:10135000B42007401020074049E400E008E100E025
:101360008020074088200740942007400021074044
:10137000F8B5234D2B78002B3FD0224E43F22D346D
:1013800009E0013C36D033781E4A002B33D100F0FF
:101390005BFA2B788BB30420FFF7B8FA0328F0D858
:1013A00000F0B2F90028ECD0174C184D2188628863
:1013B000A3880172C1F30121E4882F786E78AD789B
:1013C000477341EA8201C2F3831242EA0312C3F374
:1013D000051343EA84134172A40808218272C37280
:1013E00004738673C573018001460420FFF7E6FA93
:1013F0000020F8BD034A012313704FF0FF30F8BD01
:101400009C92FF1FAB92FF1FA494FF1FA094FF1F8D
:1014100070B5194D2B785BB3184E43F22D3408E0AC
:10142000013C22D03378154A03BB00F00DFA2B782B
:10143000F3B10320FFF76AFA0328F1D800F064F94A
:1014400001460028ECD00E4A0E4B1278027200249E
:1014500044729A881868C1F80A000823CA810B8070
:101460000320FFF7ABFA204670BD044A0123137036
:101470004FF0FF3070BD00BF9C92FF1FAB92FF1F6B
:10148000AA92FF1FA492FF1F70B4E9B1124A137809
:1014900031EA030418D01943117090B101250F4AA5
:1014A000941D1646134613F8011B884208D0A34228
:1014B000F9D1002312F8011B59B10133062BF9D1E0
:1014C0001DB170BCFFF7A4BF08B970BC7047002500
:1014D000E5E7F054F5E700BFAA92FF1FA492FF1FB3
:1014E000020AC12A30B42AD9DF2AD3B221D9F02B7B
:1014F0005BD0E02B5ED0E22B41D01C33DBB2032B60
:1015000015D8C0F3090090B1314A02F1080415461C
:10151000134633F8021B884209D0A342F9D10023B5
:1015200032F8021B00294AD00133042BF8D130BC19
:1015300070479B0103F4F86300F03F0018431F2835
:1015400008D80A2819D00B28F1D12B20002130BC53
:10155000FFF79ABF7F28EAD81E49084410F8200CEC
:101560000028E4D000F0400303F0FF0100F03F004A
:1015700003B1022130BCFFF787BF2820E6E710F057
:10158000FF00D4D0144B1A789042D0D059788842BA
:10159000CDD09C78A042CAD0B2B1B9B10222002C01
:1015A000C5D1985430BCFFF7E3BEC0B2002130BCB7
:1015B000FFF76ABFC1B230BC0020FFF765BF25F856
:1015C000130030BCFFF7D4BE0022EAE70122E8E7AF
:1015D000A494FF1FEC2A0000A094FF1F30B4C1B1F7
:1015E0000E4A1378194214D023EA01011170012424
:1015F00060B10B4B0025991D13F8012B904204BFDD
:1016000003F8015C01249942F6D11CB130BCFFF70C
:10161000FFBE08B930BC70470024EAE7AA92FF1F5A
:10162000A492FF1F020AC12A13D9DF2AD3B20AD912
:10163000F02B50D0E02B52D0E22B39D01C33DBB250
:10164000032B24D970479B0103F4F86300F03F009B
:1016500018431F2807D80A2817D00B28F2D12B20AF
:101660000021FFF7BBBF7F28ECD82449084410F8BD
:10167000200C0028E6D000F0400303F0FF0100F04A
:101680003F0003B10221FFF7A9BF2820E8E7C0F31C
:1016900009000028D6D010B4194C0023224632F895
:1016A000021B88421FD00133042BF8D110BCC9E7BC
:1016B00010F0FF00C6D0134B1A7882421BD05A7824
:1016C000824216D09A78824208BF0222BAD1002103
:1016D0009954FFF74DBEC0B20021FFF77FBFC1B2E2
:1016E0000020FFF77BBF002224F8132010BCFFF777
:1016F0003FBE0122EBE70022E9E700BFEC2A000031
:10170000A494FF1FA094FF1F72B60D480268B2FA9E
:1017100082F30D2B10DC4FF00041D94022EA010288
:10172000026062B6074803EBC303DB00C218002166
:10173000C15010465160704762B60020704700BF2C
:10174000B087FF1FBC83FF1F0D4B0E4AC31AA2FBBD
:1017500003231B090D2B0CD80B4A127852B972B611
:101760000A484FF00041026821FA03F31A4302606D
:1017700062B67047064A1278002AF0D0FFF7DCB84C
:10178000BC83FF1F398EE3389192FF1FB087FF1F84
:101790009C92FF1F38B5164D2868E0B10188448837
:1017A000A14213DD03191B7A83B104F10803C218A7
:1017B0000C1B002302E012F8011F21B10133A342E8
:1017C000F9D1204638BD1C46204638BDFFF7BCFF86
:1017D0000020286038BD074B1B780BB9002038BDAE
:1017E0000220FFF775F828600028D7D1F6E700BF80
:1017F000B492FF1F9C92FF1F0D4B1B78BBB910B515
:101800000C4C216803F0FF024B883F2B07DC0733A9
:101810000B4401F1470003F8012F8342FBD1402321
:101820000B800120FFF7CAF80023236010BD70472A
:10183000AD92FF1FB092FF1F08B5FEF717FEFEF72F
:10184000E3FE00F001F8FAE738B5224C237803B143
:1018500038BD01232370FFF79DFF70BB00F0F8F83F
:1018600040BB00F08BF910BB00F01EFAE0B900237A
:101870002370EFF30583002BEAD1EFF3108172B6EA
:10188000154B1868E0B1154C2278CAB945691D603E
:1018900001232370C5B1AA6101B962B6002545775D
:1018A000836898472570D3E700F0B8FBDFE700F0C6
:1018B000B3FBD9E700F0AEFBD3E700F0B1FBCDE717
:1018C0000029C5D162B638BD054B1D600029E5D1A0
:1018D000E3E700BFB992FF1F5894FF1F5C94FF1FFE
:1018E0005494FF1F30B42948294A2A4B2A4D6024BA
:1018F000E121047011701B78284C082B30D00A2B82
:101900002748284937D00C2B0CBF34223C22122305
:101910002A60236002600B60234B24491B78244A11
:10192000BBB101230B601360224B23491B78234A70
:10193000012B26D9042B0FD9082B1ED9102B94BFAD
:10194000862387230B6013601D4B01221A7030BC65
:1019500070470B601360E7E784230B601360F3E7C5
:1019600000F58E200F490830002213232A602360DF
:1019700002600B60D0E73822F7E785230B60136025
:10198000E2E780230B601360DEE700BF0040074002
:1019900001400740B487FF1F08B003400CB003406C
:1019A00008B00B400CB00B40BB92FF1F20B00340AF
:1019B00020B00B40B587FF1F24B0034024B00B407C
:1019C000BA92FF1F08B5104C08E0236859050DD4E2
:1019D00023681A050FD42368DB0411D42368580345
:1019E000F3D5FFF72DF823685905F1D500F040F83D
:1019F00023681A05EFD500F0D1F82368DB04EDD594
:101A000000F062F9EAE700BF3480044008B5FFF750
:101A1000D9FF00BF014B10221A80704700200540FB
:101A2000704700BF094908B50B6830B16A461844D1
:101A3000A2F58052904202D20860184608BD00F01C
:101A400017FB0C2303604FF0FF3008BDB887FF1F62
:101A5000054A064B10781B78C0B2DBB2984238BFFB
:101A60004030C01A704700BFC092FF1FC192FF1FD5
:101A7000F0B4384B1A7912F0300F2CD072B6997D31
:101A800001F0FF0200293DD062B6334F3349387868
:101A90000D78334E1C46C0B2EDB2431C402BE179A9
:101AA00028BF0023AB4202F1FF32C9B21CBFF15480
:101AB000184612F0FF02F0D12A4B1B68C2B23A70EE
:101AC0004BB1A84236BFC5F14005401B401927283D
:101AD000C4BF01221A701F49CA78D2B2150616D4A3
:101AE00052060DD51B4B1B795B0609D51E4B1F49B2
:101AF0001B6800220A7003B11A70164B3C22DA7080
:101B0000F0BC70474022D9795A7462B6E3E70B798A
:101B10001C06E5D5164B174E1C783378E4B2DBB2C1
:101B20009C420ED0144D01E0A3420AD00133402B59
:101B300028BF00230879E85CC0B2C871087D072877
:101B4000F2D9DBB2034933700B79180644BF7C230A
:101B5000CB70C5E700A00640C092FF1FC192FF1FD7
:101B60000493FF1FBC92FF1F4893FF1F4493FF1F66
:101B70004C93FF1F4593FF1FC492FF1F054A064B5E
:101B800010781B78C0B2DBB2984238BF4030C01A20
:101B9000704700BFC093FF1F5593FF1FF0B4384B31
:101BA0001A7912F0300F2CD072B6997D01F0FF0235
:101BB00000293DD062B6334F334938780D78334E23
:101BC0001C46C0B2EDB2431C402BE17928BF002374
:101BD000AB4202F1FF32C9B21CBFF154184612F0F9
:101BE000FF02F0D12A4B1B68C2B23A704BB1A84237
:101BF00036BFC5F14005401B40192728C4BF01224C
:101C00001A701F49CA78D2B2150616D452060DD5DD
:101C10001B4B1B795B0609D51E4B1F491B68002215
:101C20000A7003B11A70164B3C22DA70F0BC704790
:101C30004022D9795A7462B6E3E70B791C06E5D5E0
:101C4000164B174E1C783378E4B2DBB29C420ED0B0
:101C5000144D01E0A3420AD00133282B28BF0023F2
:101C60000879E85CC0B2C871087D0728F2D9DBB2F8
:101C7000034933700B79180644BF7C23CB70C5E74A
:101C800000B00640C093FF1F5593FF1F8093FF1FB6
:101C90005093FF1FC493FF1F5493FF1FC893FF1F50
:101CA000C193FF1F5893FF1F054A064B10781B78FE
:101CB000C0B2DBB2984238BF4030C01A704700BF94
:101CC000D093FF1FD193FF1F30B42B4B1A7994068A
:101CD0001FD52A48DA790378294901333F2B09783F
:101CE000C8BF00238B42D2B203D0264CD9B2E254F3
:101CF0000170254A116861B1244A1278D2B2934228
:101D000036BFC2F140029B1A9B18272BC4BF012388
:101D10000B70194AD378DBB2180611D45A060DD5C8
:101D2000154B1B795B0609D5194B1A491B68002214
:101D30000A7003B11A70104B2C22DA7030BC704755
:101D400011790906EAD5144910480C780178C9B20E
:101D50008C420DD04A1C272A84BF00210A460F4D11
:101D6000054C98BFD1B2AA5CD2B2E2710170D5E73E
:101D70006C21D170D2E700BF00C00640D093FF1F96
:101D8000D193FF1FFC93FF1FCC93FF1F3D94FF1FB8
:101D90004094FF1F3C94FF1F4494FF1FD493FF1FE8
:101DA00070B584B072B6194B194D1A48702241268D
:101DB0000F2480211A702E701A460470197013783F
:101DC0001B06FCD5144B186862B6144B144C984291
:101DD00098BF00EB800001A998BF40000A2200F0E4
:101DE00021F901A92046002311F8012B01333AB152
:101DF0000A2B20F8022FF7D11623237004B070BDF0
:101E00005B00DBB2237004B070BD00BF0000024075
:101E10000700024006000240080002407F9698003A
:101E2000E888FF1F10B4EFF3108272B6437F33B916
:101E3000017F012907D003290FD00123437702B97D
:101E400062B610BC7047124C2168A1B111494361C0
:101E50000B68836108605861EFE70F4C216881B11E
:101E60000E4943610B688361086058610C4B4FF069
:101E700080511960E1E7074B416181612060186082
:101E8000DBE7064B4161816120601860EEE700BF2F
:101E90005894FF1F5494FF1F4894FF1F4C94FF1F3A
:101EA00004ED00E010B4047F4160022CC26002D057
:101EB00010BCFFF7B7BF836810BC184770B5EFF3CD
:101EC000108272B60C4C206880B10C4E002543691C
:101ED000236073B19D6102B962B645778368984704
:101EE000EFF3108272B620680028F0D102B962B612
:101EF00070BD3360EFE700BF4894FF1F4C94FF1F95
:101F0000FFF7DCBF184A30B41468002C27D00368F0
:101F100021688B420ED2CB1A00218460C1602360FD
:101F2000E06010600223037530BC704711688B427B
:101F3000144608D3A2685B1A0360002AF6D18260B7
:101F4000C460A060EEE7D268C2608460E060C568EB
:101F5000CB1A0222A8602360027530BC70478460EF
:101F6000C4601060DEE700BF5094FF1FF8B5224E3A
:101F700034682CB32368002B3AD1204F1D4604E06F
:101F80003468ECB12368002B32D1A36803B1DD6063
:101F900020693360036825751B68BB4221D1037F2C
:101FA0004560022BC46020D0FFF73CFF6368002B24
:101FB000E6D023602046FFF7A5FF3468002CE1D16E
:101FC000EFF3108372B60E4A00211068116003B956
:101FD00062B628B18468FFF795FF20460028F9D142
:101FE000F8BD224600219847E0E783689847DDE77F
:101FF000013B2360E4E700BF5094FF1FA51E0000D3
:102000006094FF1F024A136801331360FFF7AEBFED
:10201000B891FF1F704700BF704700BF704700BFF7
:10202000704700BFF0B44D1E2E46002400E001347E
:10203000B0FBF2F302FB1300092800F130078ABF5E
:102040003730F8B2C0B206F8010F1846002BEED1B7
:102050000A1953704CB1107815F8016F28700133CC
:10206000E01A834202F80169F5DB0846F0BC7047CC
:10207000014B1868704700BF288DFF1F70B50F4EC9
:102080000F4D761BB61018BF002405D0013455F84B
:10209000043B9847A642F9D10A4E0B4D761B00F03F
:1020A000A7FDB61018BF002406D0013455F8043B34
:1020B0009847A642F9D170BD70BD00BFFC2B00004F
:1020C000FC2B0000042C0000FC2B0000024B0146FE
:1020D000186800F003B800BF288DFF1F2DE9F04FEE
:1020E00001F10B05162D83B0064640F29F8035F0B6
:1020F000070500F1BF80A94200F2BC8000F0A6FAFB
:10210000B5F5FC7FC0F09C826B0A00F0BA80042B0E
:1021100000F28381A80900F1390E4FEA4E033830EE
:10212000C44F07EB8303A3F108015C68A14207D108
:10213000ACE0002A80F2AC80E468A14200F0A68006
:10214000636823F003035A1B0F2AF2DDB9493C6987
:1021500001F1080E744500F0B381636823F00303B6
:102160005A1B0F2A00F39981002AC1F814E0C1F824
:1021700010E080F29E80B3F5007F80F06781DB087D
:1021800003F1010C01229B1002FA03F34A6851F893
:102190003C80C4F8088001EBCC091A43A9F108037C
:1021A000E3604A6041F83C40C8F80C4083100124C9
:1021B0009C40944200F28A80144206D120F0030031
:1021C0006400144200F10400FAD007EBC009CC46C9
:1021D0008046DCF80C108C4507D173E1002A80F2B0
:1021E0008181C9688C4500F06D814B6823F0030341
:1021F0005A1B0F2AF2DD0C46D1F80CC054F8088F98
:102200004B1945F001054D6042F00101C8F80CC0C2
:102210003046CCF808807B613B61C3F80CE0C3F822
:1022200008E059609A5000F013FA1FE0102921D8F5
:1022300000F00CFA1025062302207E4F07EB8303E3
:10224000A3F108025C68944200F045816368E1688C
:10225000A56823F00303234430465A68E96042F03E
:1022600001028D605A6000F0F3F90834204603B093
:10227000BDE8F08F00240C232046336003B0BDE896
:10228000F08F80234FF0400E3F2049E770465DE716
:102290002344E1685A68A56842F00102E9603046CB
:1022A0008D605A6000F0D4F90834204603B0BDE8D0
:1022B000F08F234430465A6842F001025A6000F021
:1022C000C7F90834204603B0BDE8F08FBC686368E6
:1022D00023F00308A84504D3C5EB08030F2B00F334
:1022E0008C80554BDFF860911A68D9F800300133C3
:1022F0002A4404EB080A00F0608102F580520F3294
:1023000022F47F6222F00F0211463046019200F063
:10231000A1F9B0F1FF3F8346019A00F05881824550
:1023200000F2FC80454B1968DA451144196000F051
:102330005381D9F80000DFF810E101301BBFCAEB70
:102340000B0A5144CEF800B019601BF0070100F0F1
:102350001781C1F10800C1F58051834408315A4406
:10236000C2F30B02C2EB010949463046019300F06B
:1023700071F9431C019B00F03F81CBEB00024A4402
:1023800042F001021968C7F808B04944BC42CBF8D2
:1023900004201960DFF8A49016D0B8F10F0F40F2B6
:1023A000FD806268A8F10C0323F00703E01802F037
:1023B00001024FF0050E1A430F2B6260C0F804E0D3
:1023C000C0F808E000F21C811D4BBC681A689142FD
:1023D00088BF19601B4B1A689142626888BF1960F8
:1023E00022F003029542A2EB050301D80F2B04DC77
:1023F000304600F02DF9002438E7621943F001035C
:1024000045F0010565603046BA60536000F020F980
:102410000834204603B0BDE8F08F142B71D9542B3B
:1024200000F2A480280B00F16F0E4FEA4E036E30CD
:1024300076E600BF2C8DFF1F6C94FF1F7094FF1F6A
:102440006894FF1F6494FF1F3891FF1F5A0A042AE3
:102450005ED9142A00F2B38002F15C0149005B32BC
:1024600007EB810C57F82110DFF8DC81ACF1080C88
:102470008C4500F088804A6822F00302934202D221
:1024800089688C45F7D1D1F80CC07A68C4F80CC0C3
:10249000A160CCF80840CC6088E6631942F00107DF
:1024A00045F00105656030464B610B61C3F80CE0F7
:1024B000C3F808E05F609A50083400F0C9F8D5E628
:1024C0004A6873E608F1010818F0030F0CF1080CD4
:1024D0007FF47FAE30E0DC68A34208BF02303FF4F7
:1024E00035AEB3E60B440C465A68C96854F8085F29
:1024F00042F001025A603046E9608D6000F0A8F8B1
:10250000B4E603F15C0E03F15B004FEA4E0307E60D
:102510009A0902F1390149003832A1E7BC424A4B1D
:102520003FF400AF9C68626822F003025AE759F852
:102530000839994540F0828010F0030F00F1FF3018
:10254000F5D17B6823EA04037B6064009C423FF67C
:10255000BDAE002C3FF4BAAE1C4240467FF435AE0F
:1025600064001C4200F10400FAD02EE6B3F5AA7F05
:1025700018D8E80B00F1780E4FEA4E037730CFE51C
:102580004FF48051EBE60121D8F80430921001FAA3
:1025900002F21A43C8F80420614677E70123CBF81A
:1025A000043025E740F25452934220D8A80C00F1A1
:1025B0007D0E4FEA4E037C30B2E51032A4E6542A79
:1025C00026D81A0B02F16F0149006E3248E7BC6849
:1025D000626822F0030205E7CAF30B0000287FF4CB
:1025E000A8AE4244BB6842F001025A60ECE6FE230A
:1025F0004FF07F0E7E2093E501224FF00009C1E6E7
:1026000004F10801304600F0A9F8D9F80010DBE623
:10261000B2F5AA7F05D8DA0B02F1780149007732CA
:102620001EE740F254518A4205D89A0C02F17D010E
:1026300049007C3214E7FE217E2211E77B6884E7A3
:10264000E808431C5B00F8E52C8DFF1F704700BFB6
:10265000704700BF38B5074C002305460846236085
:10266000FFF7E0F9431C00D038BD2368002BFBD0F6
:102670002B6038BDAC94FF1F024B13B1024800F031
:1026800005B87047000000009926000000230146AD
:102690001A46184600F04AB938B5074D074C2C1BAE
:1026A000A41005D0013C55F8043D9847002CF9D101
:1026B000BDE8384000F0A6BA0000000000000000AD
:1026C000F8B5234F0C460646FFF7C0FFBB685D68B0
:1026D00025F00305291B01F6EF7121F47F6121F03C
:1026E0000F01A1F58054B4F5805F07DB002130466F
:1026F000FFF7B0FFBB682B44984204D03046FFF789
:10270000A7FF0020F8BD61423046FFF7A3FF01306C
:102710000DD0104BBA6819682D1B45F001053046E5
:10272000091B55601960FFF793FF0120F8BD0021D8
:102730003046FFF78FFFBA68831A0F2BDEDD064C99
:102740000449246843F00103001B53600860D5E787
:102750002C8DFF1F7094FF1F3891FF1F002945D05B
:102760002DE9F0410D468046FFF770FF55F8047CD7
:102770006A4927F00103A5F10804E2188E68506841
:10278000B24220F0030062D0FE0750600BD455F82F
:10279000087CE41B01F1080EA56875453B446FD029
:1027A000E768EF60BD6015186D68ED0742D543F02E
:1027B00001026260E350B3F5007F18D2DB085A1CB7
:1027C0004D6851F83270A76001209B1000FA03F3A6
:1027D00001EBC2001D430838E0604D6041F8324013
:1027E000FC604046BDE8F041FFF732BF70475A0A2F
:1027F000042A53D89A0902F139077F0002F13805FB
:1028000001EB870051F827204449083890424DD009
:10281000516821F003018B4202D292689042F7D1B5
:10282000D068E060A2608460D4604046BDE8F041BA
:10283000FFF70EBF95683A4FBD4203443FD0D068C2
:10284000E86043F0010285606260E350B3E7FF0790
:10285000034407D455F8082CA41A1344A068E2686E
:10286000C26090602F4A126843F00100934260609A
:102870008C60B6D32C4B40461968FFF721FFB0E7B8
:1028800011184968C90744D49168D268CA600344E2
:1028900043F0010091606060E350A2E7142A17D86A
:1028A00002F15C077F0002F15B05A9E7AA104B6803
:1028B000012505FA02F213434B600246B1E743F0EB
:1028C00001024C610C61E560A5606260E35088E73D
:1028D000542A06D81A0B02F16F077F0002F16E0529
:1028E0008EE7B2F5AA7F06D8DA0B02F178077F00EF
:1028F00002F1770584E740F25450824206D89A0CE0
:1029000002F17D077F0002F17C0579E7FE277E2535
:1029100076E743F001026260E35062E72C8DFF1F0F
:10292000348DFF1F3491FF1F6C94FF1F2DE9F0477A
:10293000254C2568D5F84841064688469246994672
:10294000C4B360681F2817DC431C76B104EB800514
:102950000122C5F888A0D4F8881182401143022EC4
:10296000C4F88811C5F808911ED00230636044F89D
:1029700020800020BDE8F087144B03B34FF4C870EB
:10298000FFF7A4FB0446D0B1D5F84831002780E812
:102990008800C5F8484138460123C4F88871C4F856
:1029A0008C71002EE1D0D1E7D4F88C110A43C4F821
:1029B0008C21DAE705F5A674C5F84841C1E74FF068
:1029C000FF30BDE8F08700BFEC2B0000CD200000F9
:1029D000010002060507FFFF0308FFFF4008FE4352
:1029E00040A004404408FE4344A004400018FE43B5
:1029F00000C004403000FE43309004403400FE43E9
:102A0000349004401C18FE431CC004401018FE43C0
:102A100010C004400818FE4308C004400C18FE43D0
:102A20000CC004400C10FE430CB004401010FE43D8
:102A300010B004401810FE4318B004401C10FE43B0
:102A40001CB004401410FE4314B004400418FE43AC
:102A500004C004400010FE4300B004400008FE43E0
:102A600000A004400408FE4304A004400C08FE43F8
:102A70000CA004400808FE4308A004401418FE43BC
:102A800014C004401818FE4318C004400410FE434C
:102A900004B004400810FE4308B004401400FE4394
:102AA000149004404C08FE434CA004400420FE4314
:102AB00004D004402410FE4324B004402010FE4300
:102AC00020B004402810FE4328B004402C10FE43E0
:102AD0002CB004400020FE4300D004404808FE43D0
:102AE00048A004401000FE43109004402C5E746027
:102AF000616264346667656E362D3738271E1F2085
:102B00002122232425267333762E77785F44454689
:102B10004748494A4B4C4D4E4F50515253545556CD
:102B20005758595A5B5C5D2F3130636D350405068B
:102B30000708090A0B0C0D0E0F10111213141516AD
:102B40001718191A1B1C1D6F7170752A1519151588
:102B500000010000FC87FF1F1200000000020000BF
:102B60002888FF1F5B000000002201008488FF1FEF
:102B700021000000002101005388FF1F0900000010
:102B800000220000BC87FF1F3F0000000021000062
:102B90003A88FF1F0900000000220200A888FF1FDA
:102BA00028000000002102007388FF1F09000000B8
:102BB00000030000E488FF1F000000000103090477
:102BC0001088FF1F0000000002030904D088FF1FC7
:102BD0000000000003030904E888FF1F0000000054
:102BE0000000000000000000000000000089FF1F3E
:102BF000F8B500BFF8BC08BC9E46704779260000B7
:042C00003504000097
:042C0400F8B500BF60
:102C0800FFFFFFFF0A040000B094FF1F050109063B
:102C1800A10175019508050719E029E715002501A7
:102C2800810295017508810395057501050819014B
:102C380029059102950175039103950675081500FC
:102C4800257F05071900297F8100C00012010101B5
:102C580000000040C016D004000201020301000079
:102C680018035400650065006E0073007900640065
:102C7800750069006E006F0009025B00030100C067
:102C880032090400000103010100092111010001BA
:102C9800223F00070583030800010904010002031D
:102CA800000000092111010001222100070581030C
:102CB8004000010705020320000209040200010385
:102CC80000000009211101000122280007058403E2
:102CD8000800040006C9FF0904A15C750815002650
:102CE800FF009540097581029520097691029504A7
:102CF8000976B102C0000000050C0901A101750A9E
:102D0800950419002A9C021500269C0281000501E1
:102D180075089503190029B7150026B7008100C06A
:102D280012034B006500790062006F0061007200B9
:102D380064000000040309040C0300000000000004
:102D4800000000000000000000000000000000007B
:102D580000000000EC8BFF1F548CFF1FBC8CFF1F72
:102D6800000000000000000000000000000000005B
:102D7800000000000000000000000000000000004B
:102D8800000000000000000000000000000000003B
:102D9800000000000000000000000000000000002B
:102DA800000000000000000000000000000000001B
:102DB800000000000000000000000000000000000B
:102DC80000000000000000000000000000000000FB
:102DD80000000000000000000000000000000000EB
:102DE80000000000000000000000000000000000DB
:102DF80000000000000000000100000000000000CA
:102E08000E33CDAB34126DE6ECDE05000B0000008E
:102E180000000000000000000000000000000000AA
:102E2800000000000000000000000000000000009A
:102E3800000000000000000000000000000000008A
:102E4800000000000000000000000000000000007A
:1031780000000000000000000089FF1F00000000A0
:10318800000000002C8DFF1F2C8DFF1F348DFF1FAA
:10319800348DFF1F3C8DFF1F3C8DFF1F448DFF1F8B
:1031A800448DFF1F4C8DFF1F4C8DFF1F548DFF1F3B
:1031B800548DFF1F5C8DFF1F5C8DFF1F648DFF1FEB
:1031C800648DFF1F6C8DFF1F6C8DFF1F748DFF1F9B
:1031D800748DFF1F7C8DFF1F7C8DFF1F848DFF1F4B
:1031E800848DFF1F8C8DFF1F8C8DFF1F948DFF1FFB
:1031F800948DFF1F9C8DFF1F9C8DFF1FA48DFF1FAB
:10320800A48DFF1FAC8DFF1FAC8DFF1FB48DFF1F5A
:10321800B48DFF1FBC8DFF1FBC8DFF1FC48DFF1F0A
:10322800C48DFF1FCC8DFF1FCC8DFF1FD48DFF1FBA
:10323800D48DFF1FDC8DFF1FDC8DFF1FE48DFF1F6A
:10324800E48DFF1FEC8DFF1FEC8DFF1FF48DFF1F1A
:10325800F48DFF1FFC8DFF1FFC8DFF1F048EFF1FC9
:10326800048EFF1F0C8EFF1F0C8EFF1F148EFF1F76
:10327800148EFF1F1C8EFF1F1C8EFF1F248EFF1F26
:10328800248EFF1F2C8EFF1F2C8EFF1F348EFF1FD6
:10329800348EFF1F3C8EFF1F3C8EFF1F448EFF1F86
:1032A800448EFF1F4C8EFF1F4C8EFF1F548EFF1F36
:1032B800548EFF1F5C8EFF1F5C8EFF1F648EFF1FE6
:1032C800648EFF1F6C8EFF1F6C8EFF1F748EFF1F96
:1032D800748EFF1F7C8EFF1F7C8EFF1F848EFF1F46
:1032E800848EFF1F8C8EFF1F8C8EFF1F948EFF1FF6
:1032F800948EFF1F9C8EFF1F9C8EFF1FA48EFF1FA6
:10330800A48EFF1FAC8EFF1FAC8EFF1FB48EFF1F55
:10331800B48EFF1FBC8EFF1FBC8EFF1FC48EFF1F05
:10332800C48EFF1FCC8EFF1FCC8EFF1FD48EFF1FB5
:10333800D48EFF1FDC8EFF1FDC8EFF1FE48EFF1F65
:10334800E48EFF1FEC8EFF1FEC8EFF1FF48EFF1F15
:10335800F48EFF1FFC8EFF1FFC8EFF1F048FFF1FC4
:10336800048FFF1F0C8FFF1F0C8FFF1F148FFF1F71
:10337800148FFF1F1C8FFF1F1C8FFF1F248FFF1F21
:10338800248FFF1F2C8FFF1F2C8FFF1F348FFF1FD1
:10339800348FFF1F3C8FFF1F3C8FFF1F448FFF1F81
:1033A800448FFF1F4C8FFF1F4C8FFF1F548FFF1F31
:1033B800548FFF1F5C8FFF1F5C8FFF1F648FFF1FE1
:1033C800648FFF1F6C8FFF1F6C8FFF1F748FFF1F91
:1033D800748FFF1F7C8FFF1F7C8FFF1F848FFF1F41
:1033E800848FFF1F8C8FFF1F8C8FFF1F948FFF1FF1
:1033F800948FFF1F9C8FFF1F9C8FFF1FA48FFF1FA1
:10340800A48FFF1FAC8FFF1FAC8FFF1FB48FFF1F50
:10341800B48FFF1FBC8FFF1FBC8FFF1FC48FFF1F00
:10342800C48FFF1FCC8FFF1FCC8FFF1FD48FFF1FB0
:10343800D48FFF1FDC8FFF1FDC8FFF1FE48FFF1F60
:10344800E48FFF1FEC8FFF1FEC8FFF1FF48FFF1F10
:10345800F48FFF1FFC8FFF1FFC8FFF1F0490FF1FBF
:103468000490FF1F0C90FF1F0C90FF1F1490FF1F6C
:103478001490FF1F1C90FF1F1C90FF1F2490FF1F1C
:103488002490FF1F2C90FF1F2C90FF1F3490FF1FCC
:103498003490FF1F3C90FF1F3C90FF1F4490FF1F7C
:1034A8004490FF1F4C90FF1F4C90FF1F5490FF1F2C
:1034B8005490FF1F5C90FF1F5C90FF1F6490FF1FDC
:1034C8006490FF1F6C90FF1F6C90FF1F7490FF1F8C
:1034D8007490FF1F7C90FF1F7C90FF1F8490FF1F3C
:1034E8008490FF1F8C90FF1F8C90FF1F9490FF1FEC
:1034F8009490FF1F9C90FF1F9C90FF1FA490FF1F9C
:10350800A490FF1FAC90FF1FAC90FF1FB490FF1F4B
:10351800B490FF1FBC90FF1FBC90FF1FC490FF1FFB
:10352800C490FF1FCC90FF1FCC90FF1FD490FF1FAB
:10353800D490FF1FDC90FF1FDC90FF1FE490FF1F5B
:10354800E490FF1FEC90FF1FEC90FF1FF490FF1F0B
:10355800F490FF1FFC90FF1FFC90FF1F0491FF1FBA
:103568000491FF1F0C91FF1F0C91FF1F1491FF1F67
:103578001491FF1F1C91FF1F1C91FF1F2491FF1F17
:0C3588002491FF1F00000200FFFFFFFF66
:00000001FF
